{
    "contractName": "MyToken",
    "abi": [
        {
            "inputs": [
                {
                    "internalType": "string",
                    "name": "_name",
                    "type": "string"
                },
                {
                    "internalType": "string",
                    "name": "_symbol",
                    "type": "string"
                }
            ],
            "stateMutability": "nonpayable",
            "type": "constructor"
        },
        {
            "anonymous": false,
            "inputs": [
                {
                    "indexed": true,
                    "internalType": "address",
                    "name": "from",
                    "type": "address"
                },
                {
                    "indexed": true,
                    "internalType": "address",
                    "name": "to",
                    "type": "address"
                },
                {
                    "indexed": false,
                    "internalType": "uint256",
                    "name": "value",
                    "type": "uint256"
                }
            ],
            "name": "Transfer",
            "type": "event"
        },
        {
            "inputs": [
                {
                    "internalType": "address",
                    "name": "",
                    "type": "address"
                }
            ],
            "name": "balances",
            "outputs": [
                {
                    "internalType": "uint256",
                    "name": "",
                    "type": "uint256"
                }
            ],
            "stateMutability": "view",
            "type": "function"
        },
        {
            "inputs": [
                {
                    "internalType": "address[]",
                    "name": "_recipients",
                    "type": "address[]"
                },
                {
                    "internalType": "uint256[]",
                    "name": "_amounts",
                    "type": "uint256[]"
                }
            ],
            "name": "distribute",
            "outputs": [],
            "stateMutability": "nonpayable",
            "type": "function"
        },
        {
            "inputs": [
                {
                    "internalType": "uint256",
                    "name": "_amount",
                    "type": "uint256"
                }
            ],
            "name": "mint",
            "outputs": [],
            "stateMutability": "nonpayable",
            "type": "function"
        },
        {
            "inputs": [],
            "name": "name",
            "outputs": [
                {
                    "internalType": "string",
                    "name": "",
                    "type": "string"
                }
            ],
            "stateMutability": "view",
            "type": "function"
        },
        {
            "inputs": [],
            "name": "owner",
            "outputs": [
                {
                    "internalType": "address",
                    "name": "",
                    "type": "address"
                }
            ],
            "stateMutability": "view",
            "type": "function"
        },
        {
            "inputs": [],
            "name": "symbol",
            "outputs": [
                {
                    "internalType": "string",
                    "name": "",
                    "type": "string"
                }
            ],
            "stateMutability": "view",
            "type": "function"
        },
        {
            "inputs": [],
            "name": "totalSupply",
            "outputs": [
                {
                    "internalType": "uint256",
                    "name": "",
                    "type": "uint256"
                }
            ],
            "stateMutability": "view",
            "type": "function"
        },
        {
            "inputs": [
                {
                    "internalType": "address",
                    "name": "_to",
                    "type": "address"
                },
                {
                    "internalType": "uint256",
                    "name": "_amount",
                    "type": "uint256"
                }
            ],
            "name": "transfer",
            "outputs": [],
            "stateMutability": "nonpayable",
            "type": "function"
        }
    ],
    "bytecode": "60806040523461031d57610b058038038061001981610321565b92833981019060408183031261031d5780516001600160401b03811161031d5782610045918301610346565b60208201519092906001600160401b03811161031d576100659201610346565b81516001600160401b038111610233575f54600181811c91168015610313575b602082101461021557601f81116102b1575b50602092601f821160011461025257928192935f92610247575b50508160011b915f199060031b1c1916175f555b80516001600160401b03811161023357600154600181811c91168015610229575b602082101461021557601f81116101b2575b50602091601f8211600114610152579181925f92610147575b50508160011b915f199060031b1c1916176001555b600380546001600160a01b0319163317905560405161076d90816103988239f35b015190505f80610111565b601f1982169260015f52805f20915f5b85811061019a57508360019510610182575b505050811b01600155610126565b01515f1960f88460031b161c191690555f8080610174565b91926020600181928685015181550194019201610162565b60015f527fb10e2d527612073b26eecdfd717e6a320cf44b4afac2b0732d9fcbe2b7fa0cf6601f830160051c8101916020841061020b575b601f0160051c01905b81811061020057506100f8565b5f81556001016101f3565b90915081906101ea565b634e487b7160e01b5f52602260045260245ffd5b90607f16906100e6565b634e487b7160e01b5f52604160045260245ffd5b015190505f806100b1565b601f198216935f8052805f20915f5b8681106102995750836001959610610281575b505050811b015f556100c5565b01515f1960f88460031b161c191690555f8080610274565b91926020600181928685015181550194019201610261565b5f80527f290decd9548b62a8d60345a988386fc84ba6bc95484008f6362f93160ef3e563601f830160051c81019160208410610309575b601f0160051c01905b8181106102fe5750610097565b5f81556001016102f1565b90915081906102e8565b90607f1690610085565b5f80fd5b6040519190601f01601f191682016001600160401b0381118382101761023357604052565b81601f8201121561031d578051906001600160401b03821161023357610375601f8301601f1916602001610321565b928284526020838301011161031d57815f9260208093018386015e830101529056fe60806040526004361015610011575f80fd5b5f3560e01c806306fdde031461056657806318160ddd1461054957806327e235e3146105115780632929abe61461030b5780638da5cb5b146102e357806395d89b41146101df578063a0712d681461015f5763a9059cbb14610071575f80fd5b3461015b57604036600319011261015b5761008a61067e565b60243590335f5260046020528160405f20541061011f57335f52600460205260405f2080549083820391821161010b575560018060a01b031690815f52600460205260405f206100db82825461072a565b90556040519081527fddf252ad1be2c89b69c2b068fc378daa952ba7f163c4a11628f55a4df523b3ef60203392a3005b634e487b7160e01b5f52601160045260245ffd5b60405162461bcd60e51b8152602060048201526014602482015273496e73756666696369656e742062616c616e636560601b6044820152606490fd5b5f80fd5b3461015b57602036600319011261015b5760043561018860018060a01b036003541633146106ac565b6101948160025461072a565b600255335f52600460205260405f206101ae82825461072a565b90556040519081525f7fddf252ad1be2c89b69c2b068fc378daa952ba7f163c4a11628f55a4df523b3ef60203393a3005b3461015b575f36600319011261015b576040515f6001548060011c906001811680156102d9575b6020831081146102c5578285529081156102a15750600114610243575b61023f836102338185038261061e565b60405191829182610654565b0390f35b60015f9081527fb10e2d527612073b26eecdfd717e6a320cf44b4afac2b0732d9fcbe2b7fa0cf6939250905b80821061028757509091508101602001610233610223565b91926001816020925483858801015201910190929161026f565b60ff191660208086019190915291151560051b840190910191506102339050610223565b634e487b7160e01b5f52602260045260245ffd5b91607f1691610206565b3461015b575f36600319011261015b576003546040516001600160a01b039091168152602090f35b3461015b57604036600319011261015b5760043567ffffffffffffffff811161015b573660238201121561015b57806004013561034781610694565b91610355604051938461061e565b8183526024602084019260051b8201019036821161015b57602401915b8183106104f1578360243567ffffffffffffffff811161015b573660238201121561015b578060040135906103a682610694565b916103b4604051938461061e565b8083526024602084019160051b8301019136831161015b57602401905b8282106104e1575050506103f060018060a01b036003541633146106ac565b81518151036104a5575f5b82518110156104a3578061041d61041460019385610702565b5160025461072a565b60025561042a8184610702565b51828060a01b0361043b8387610702565b51165f52600460205261045360405f2091825461072a565b9055818060a01b036104658286610702565b51165f7fddf252ad1be2c89b69c2b068fc378daa952ba7f163c4a11628f55a4df523b3ef60206104958588610702565b51604051908152a3016103fb565b005b60405162461bcd60e51b8152602060048201526014602482015273496e76616c696420696e7075742061727261797360601b6044820152606490fd5b81358152602091820191016103d1565b82356001600160a01b038116810361015b57815260209283019201610372565b3461015b57602036600319011261015b576001600160a01b0361053261067e565b165f526004602052602060405f2054604051908152f35b3461015b575f36600319011261015b576020600254604051908152f35b3461015b575f36600319011261015b576040515f5f548060011c90600181168015610614575b6020831081146102c5578285529081156102a157506001146105b85761023f836102338185038261061e565b5f8080527f290decd9548b62a8d60345a988386fc84ba6bc95484008f6362f93160ef3e563939250905b8082106105fa57509091508101602001610233610223565b9192600181602092548385880101520191019092916105e2565b91607f169161058c565b90601f8019910116810190811067ffffffffffffffff82111761064057604052565b634e487b7160e01b5f52604160045260245ffd5b602060409281835280519182918282860152018484015e5f828201840152601f01601f1916010190565b600435906001600160a01b038216820361015b57565b67ffffffffffffffff81116106405760051b60200190565b156106b357565b60405162461bcd60e51b815260206004820152602160248201527f4f6e6c79206f776e65722063616e2063616c6c20746869732066756e6374696f6044820152603760f91b6064820152608490fd5b80518210156107165760209160051b010190565b634e487b7160e01b5f52603260045260245ffd5b9190820180921161010b5756fea2646970667358221220383c10dc84eb9580e394f8a96944d438aba5c4ddef651f3683c97ecdd979bb2d64736f6c634300081c0033",
    "sourcePath": "c:/Users/sanka/Desktop/Blockchain/MyToken.sol",
    "compiler": {
        "name": "solc",
        "version": "0.8.28+commit.7893614a"
    },
    "functionHashes": {
        "balances(address)": "27e235e3",
        "distribute(address[],uint256[])": "2929abe6",
        "mint(uint256)": "a0712d68",
        "name()": "06fdde03",
        "owner()": "8da5cb5b",
        "symbol()": "95d89b41",
        "totalSupply()": "18160ddd",
        "transfer(address,uint256)": "a9059cbb"
    },
    "gasEstimates": {
        "creation": {
            "codeDepositCost": "380200",
            "executionCost": "infinite",
            "totalCost": "infinite"
        },
        "external": {
            "balances(address)": "2442",
            "distribute(address[],uint256[])": "infinite",
            "mint(uint256)": "infinite",
            "name()": "infinite",
            "owner()": "2360",
            "symbol()": "infinite",
            "totalSupply()": "2270",
            "transfer(address,uint256)": "52977"
        }
    }
}